1234567FRUFRU         LULU           10ANALYST          111223333........................10181977  002015S1235533399000445554411111
1436588WALK           SUE            08PROGRAMMER       134528903........................11232000  303355S1234567891234567891234567
9999999FRUFRU         RICHARD        01PLANNER          254868483........................06052003  001900S0987654321098765432109876
1234567URFURF         PETE           09DISASTER RECOVERY343434444........................03231977  001899S5432198765543219876543219
3849838WASHINGTON     SUSANNAH       04SYSTEM ANALYST   483938883........................12141995  003500S6789012345678901234567890
9865878MOORE          JOHNNIE        07DRIVER           247958499........................03231996  001250H1231231231231231231231231
0686766ANTROPOLUS     JUANITA        03WINDOW WASHER    169584990........................04121930  001125H1111111111111111111111111
7494883MUNCHMORE      IGOR           02VALET            038648840........................07141985  000800H2222222222222222222222222
0557733ANT            JUAN           05DISH WASHER      223344556........................07121990  000725H3333333333333333333333333
5585858PANTHER        PAULA          06MANAGER          999997777........................09231986  001567S4444444444444444444444444
1230987SISEMORE       ADDYSON        08PROGRAMMER       555555555........................12041979  999999S5555555555555555555555555
5674567SISEMORE       TAYLAR         02VALET            777777777........................22288999  000725H6666666666666666666666666
1234567FRUFRU         LULU           10ANALYST          111223333........................10181977  002015S7777777777777777777777777
1436588WALK           SUE            08PROGRAMMER       134528903........................11232000  303355S8888888888888888888888888
9999999FRUFRU         RICHARD        01PLANNER          254868483........................06052003  001900S9999999999999999999999999
1234567URFURF         PETE           09DISASTER RECOVERY343434444........................03231977  001899S0000000000000000000000000
3849838WASHINGTON     SUSANNAH       04SYSTEM ANALYST   483938883........................12141995  003500S1111111111111111111111111
9865878MOORE          JOHNNIE        07DRIVER           247958499........................03231996  001250H2222222222222222222222222
0686766ANTROPOLUS     JUANITA        03WINDOW WASHER    169584990........................04121930  001125H3333333333333333333333333
7494883MUNCHMORE      IGOR           02VALET            038648840........................07141985  000800H4444444444444444444444444
0557733ANT            JUAN           05DISH WASHER      223344556........................07121990  000725H5555555555555555555555555
5585858PANTHER        PAULA          06MANAGER          999997777........................09231986  001567S6666666666666666666666666
1230987SISEMORE       ADDYSON        08PROGRAMMER       555555555........................12041979  999999S7777777777777777777777777
